:020000040800F2
:100000000000012095200008ED000008EF00000826
:10001000F1000008F3000008F500000800000000EF
:10002000000000000000000000000000F7000008D1
:10003000F7000008F70000082F02000829590008FF
:100040002F290008B7280008DB280008C32800086B
:1000500099280008BD2800086F28000875280008A6
:1000600081280008872800088D28000843280008F8
:10007000492800084F280008552800085B28000878
:100080006128000867280008312800082329000893
:1000900029290008372800083D280008932800086F
:1000A000E1280008F3280008ED280008E7280008E8
:1000B000F9280008FF28000805290008A5280008DD
:1000C0009F280008B1280008AB280008CF280008A6
:1000D000D52800080B290008112900081729000855
:1000E0007B280008C92800081D290008FEE7FEE754
:1000F000FEE7FEE7FEE7FEE700F002F800F050F84A
:100100000AA090E8000C82448344AAF10107DA4572
:1001100001D100F045F8AFF2090EBAE80F0013F074
:10012000010F18BFFB1A43F0010318471C750300A9
:100130003C750300103A24BF78C878C1FAD852073A
:1001400024BF30C830C144BF04680C607047000051
:100150000023002400250026103A28BF78C1FBD8D0
:10016000520728BF30C148BF0B607047662908F0AE
:10017000B083642900F0CA80002070471FB500F0EA
:100180005DFD04000020002107F0AAFC401C606017
:100190000020002107F08EFCE0601FBD10B510BDEF
:1001A000DFF80CD0FFF7EAFF07F054FC01F01AF972
:1001B0000000012003B4FFF7F1FF03BC01F042FB94
:1001C00072B6704762B67047EFF3108072B6704730
:1001D00080F310887047B0FA80F0704790FAA0F072
:1001E000704730BF704720BF70470000EFF31080AA
:1001F00072B6704780F3108870471D484FF6FF7144
:100200000170002080F309881A48012101701A4802
:100210004FF08051016062B6FEE717484FF0805101
:100220000160704714484FF080510160704772B60A
:10023000EFF3098028B1203880E8F00F0F490968F2
:10024000086000B50E4880475DF804EB0D480E4984
:100250000A78027009480D490A680260106890E83F
:10026000F00F203080F309884EF0040E62B670471C
:1002700020ED00E05300002004ED00E070000020BD
:10028000B1570008500000205100002078000020E5
:100290000FB41CB5074B06AA7B446946009005982D
:1002A00000F023FC0020694600F032FC1CBC5DF825
:1002B00014FB00007508000070B5044685690068ED
:1002C000C10601D5302600E02026C00708D070BD49
:1002D000D4E9012130469047206A00F101002062F4
:1002E0006D1EF5D570BD70B5044685690078C007F0
:1002F00008D170BDD4E9012120209047206A00F187
:10030000010020626D1EF5D570BD00002DE9F041A1
:100310000646002410687529314616A511D0AFF3A2
:100320000080002803DAC0F1000013A507E031685F
:100330008A0701D511A502E0490704D510A50124BB
:1003400001E0AFF3008000210A2306F1240707E053
:10035000B0FBF3F203FB1200303078541046491C16
:100360000028F5D123462A463046BDE8F04100F08A
:100370004AB90000000000002D0000002B00000022
:10038000200000002DE9F0474FF0000A894604469E
:10039000C0F820A02046E1688847002876D02528AC
:1003A00006D0D4E901219047206A401C2062F1E781
:1003B000E168204600258847C4F81CA006460027AF
:1003C000C4F818A02A2E09D0304607F0BAFA38B37C
:1003D00004EB8708303EC8F8186019E059F8041B90
:1003E000204604EB87029161E1688847012F0646A9
:1003F00018D1E069002820DA25F020051DE0D8F8A2
:10040000180000EB800006EB40003038C8F81800F8
:100410002046E1688847064607F093FA0028EED1A7
:10042000012F0AD02E2E08D12046E16888477F1C74
:100430000646022F45F02005C4DBA069002803DA38
:10044000404245F00105A061E80701D025F0100504
:10045000B6B1A6F14100192802D8203645F400654E
:100460004A463146204625604D46FFF77FFE58B18B
:10047000012806D0ED1D25F0070000F1080989E7E5
:1004800004E005F1040985E730468AE7206ABDE803
:10049000F08770B5064600F0A7F8046805463046B8
:1004A0000A22002100F08AFB2C6070BD70B5064660
:1004B00000F09AF80468054630460A22002100F050
:1004C0007DFB2C6070BD40EA0103024630B59B07FE
:1004D00010D14FF0013400E008C208C91D1B9D4334
:1004E00015EAC41FF8D013F0FF0102F8011B0DD06C
:1004F0001B0AF8E711F8013B002B02F8013B05D07D
:1005000011F8013B002B02F8013BF3D130BD10B5CF
:10051000431C02E010F8011B71B18107FAD14FF0C2
:10052000013202C88C1A8C4314EAC211F9D0C01AE5
:100530000A0603D0C01E10BDC01A10BD0A0401D0A7
:10054000801E10BD0902FCD0401E10BD421E12F8D4
:10055000013F002BFBD111F8013B002B02F8013BBE
:10056000F9D170474FF0013C50F8042B51F8043B8F
:100570009A4221D1A2EB0C03934313EACC1317D177
:1005800050F8042B51F8043B9A4215D1A2EB0C030E
:10059000934313EACC130BD150F8042B51F8043BCE
:1005A0009A4209D1A2EB0C03934313EACC13DBD09C
:1005B0004FF00000704700BFD01A01BAB1FA81F1C4
:1005C00001F0180122FA01F0CB40C1F12001DBB2A9
:1005D000C0B2C01A2CFA01F3D11A914311EAC31127
:1005E000E6D1704770470000004870471827002088
:1005F00010B5FFF7F9FF006810BD10B50446FFF70E
:10060000F3FF046010BD2DE9F0470D469946924670
:10061000044600F124080168880604D5E06921F049
:100620001001216000E00120A84202DDA0EB0507D7
:1006300000E00027A16907EB050202EB0900A1EB2E
:100640000000A0612078C00602D42046FFF734FEE7
:10065000002608E0D4E901211AF806009047206A34
:10066000401C761C20624E45F4DB2078C0060AD57B
:100670002046FFF721FE06E0D4E901213020904713
:10068000206A401C2062381EA7F10107F4DC07E055
:10069000D4E9012118F805009047206A401C206227
:1006A000281EA5F10105F3DC2046FFF71CFE20788B
:1006B000000602D50220BDE8F0870120FBE7704765
:1006C0002DE9FF4F0C461E464FF0FF378BB0D2E9A5
:1006D0000001DDF860800A908A46C1F30A5505B929
:1006E0003D46002108464FF00000BAF1000F00F42B
:1006F000400005DA00EB80004FF4400101EA5000B1
:100700004FEA9059B9F1010F00DDB9460A9850EA55
:100710004A000ED044F61050A5F2FF3545432F1481
:10072000B8F1000F1ED07542291E1EDDC9F100026E
:100730001CE0B8F1010F4FF0000001D0302103E0C0
:10074000F24305E02154401CB042FBDB304600225E
:10075000002121540B99C1F80880C1E900200FB095
:10076000BDE8F08FBD1B6D1CDEE74A4600DA69422A
:1007700006A800F065FB06AB07CB03AB07C35046EA
:100780000A9901F078F88DE80700A0F500501F38AD
:1007900000900398002D09DD42F21F014A460844EB
:1007A00003A90390684601F002FB08E0A0F50050A1
:1007B0004A461F3803A90390684601F020FB8DE8E4
:1007C00007000004000C03D04FF0FF30410800E0A8
:1007D0001046B8F1000F03D00022009215461FE02A
:1007E000751E06D400F02EFA02F1300262556D1E1D
:1007F000F8D5B3460122084302D000227F1C04E052
:100800002078302801D100227F1E002A099787D046
:100810001DE0112D07DA00F015FA303262556D1C1B
:1008200050EA0102F5D108430FD10021681E05E00E
:10083000235C625C6354491C2254401E8142F7DBF6
:10084000AB46A81B401E099001E0009848B100206B
:1008500004F80B000B98099AC0F80880C0E9002B37
:100860007DE711264FF000085AE72DE9F04F884642
:100870000446D21D22F0070191B0D1E90001CDE973
:100880000A0106F0EBFF02460B98C00F01D02D20A5
:1008900007E02068810701D52B2002E0202101EA32
:1008A000C000032A099001D0072A05DB0346414610
:1008B000204600F015FA0FE12078800601D5E069A6
:1008C00000E00620B8F1650F814606D0B8F1660F4A
:1008D00018D0B8F1670F72D132E00020B9F1110FD2
:1008E000009001DB112301E009F101030AAA01A92B
:1008F0000CA8FFF7E5FEDDE90C70002609F1010503
:10090000834648E001204B4600904FF000470AAA7A
:1009100001A90CA8FFF7D4FEDDE90DB00C995D46E6
:10092000002618B909F1010001EB0005B9EB05003B
:1009300003D4C0F1FF3609F10105A5EB09002BE056
:10094000B9F1010F01DA4FF001090020B9F1110FDF
:100950000090484601DD112300E003460AAA01A9E0
:100960000CA8FFF7ADFEDDE90C704D46002683466E
:10097000207800070AD4AB4500DA5D4601A8012DB6
:1009800004DD411911F8011C302907D04F4502DA66
:1009900017F1040F04DA0120824610E06D1EEEE725
:1009A000002F02DCED1B3E4403E0781CA84200DD72
:1009B0000546A7EB060000F1010A4FF0004720783A
:1009C000000703D4AA4501DB4FF0FF3A0021B7F13D
:1009D000004F0DF143088DF8431023D002202B2344
:1009E000002F01DA7F422D234FF00A0C011EA0F1E7
:1009F000010000DC4FB197FBFCF10CFB11720F46BC
:100A000002F1300208F8012DF0E7A8F101000370AF
:100A10002188090501D5452100E06521A0F10108E3
:100A200000F8011C09980FA9A1EB080707F10707B7
:100A300000B1012000EB050101EBEA70A169384427
:100A4000A1EB0000A0F10100A0612078C00602D453
:100A50002046FFF731FC099830B1D4E901219047D5
:100A6000206A00F1010020622078C00620D52046CF
:100A7000FFF722FC1CE0002E04DBB34502DD01A8D9
:100A8000805D00E03020D4E901219047206A761C87
:100A9000401CBAF1010A20620AD100F0CFF8C06808
:100AA0000168405CD4E901219047206A401C206223
:100AB000281EA5F10105DEDC07E0D4E9012118F8C4
:100AC000010B9047206A401C2062381EA7F10107E5
:100AD000F3DC2046FFF707FC022011B040E60000DF
:100AE00001694A1C02610878704700B58FB0CDE9F2
:100AF00001310021059105497944CDE903101146E2
:100B00006846FFF73FFC0FB000BD0000E5FFFFFFA8
:100B10000A6802F8010B0A60704700000FB4002356
:100B200000B589B00CA900910B99CB60204B7B4498
:100B30000693204B7B44079304236FF00042CDE9DA
:100B400001321D4A7A446B4608920246002007F0A3
:100B500022FF09B05DF814FB70B506464FF0FF3078
:100B600015460C46324686B00091CDE90101694632
:100B70000020049004A8FFF7D1FF03460498211831
:100B800025B108B10A4600E022462A6000280DD0AF
:100B9000002B02DD0098884208D03246081B6946C7
:100BA0000094CDE9010404A8FFF7B8FF06B070BDBA
:100BB0002F02000047020000870100002DE9F047E6
:100BC00091460F4680460446002614F8015B2DB17D
:100BD00000F02CF80068405DC007F6D12B2D02D044
:100BE0002D2D18D0641E4A463946204600F0D8F80C
:100BF00027B13968A14201D1C7F800804FF0020443
:100C000071050BD54042002803DDFFF7EDFC0460C1
:100C1000A007BDE8F08746F48066E4E70028F8DA2C
:100C2000FFF7E2FC04606FF00040F2E710B500F05F
:100C300005F8001D10BD00BFA96E000000487047F8
:100C40003827002030B5B0F10A024FEA900E71F15A
:100C500000034EEA817EB0EB0E0061EB91014FEA9A
:100C6000101E4EEA017E10EB0E0041EB11114FEA0F
:100C7000102E4EEA016E10EB0E0041EB11214FEAEF
:100C8000104E4EEA014E10EB0E0041EB11414018A0
:100C900041F100014FEAD00040EA41704FEAD10132
:100CA00010EB80054FEA810444EA907444EB0104A0
:100CB0006D1944EB0404521BA3414FF0000348BFDD
:100CC0000A3200D530BD401C41F1000130BD10B5E5
:100CD0000446FFF7ABFF0068005D00F0010010BDA7
:100CE0002DE9F0411F46044603260168072A01F456
:100CF000006004DB08B116A505E016A503E008B105
:100D000015A500E015A521F010002060A069C01E07
:100D1000A0610FB1401EA0612046FFF7CDFA4FB190
:100D2000D4E9012138469047206A401C2062C01C4B
:100D3000206206E0206AFAE7D4E9012115F8010BE8
:100D40009047761EF8D22046FFF7CDFABDE8F08135
:100D50004E414E006E616E00494E4600696E66005F
:100D6000426842B1016811F8013B23B1521EC0E94B
:100D70000012184670470121C160881E7047426802
:100D80005AB1C368016843B983688B4205D0491ED4
:100D9000521CC0E90012002070474FF0FF3070472E
:100DA0002DE9F05F824615468B4600270AF10104C3
:100DB000B9460078302801D09DB113E014F8010B3A
:100DC0000127782803D0582801D045B10AE00DB199
:100DD000102D07D1002714F8010B102502E008257B
:100DE00000E00A250026B0460EE005FB080005FBE2
:100DF00006F101271FFA80F801EB1046B6F5803F97
:100E000000D3B94614F8010B294600F08BF80028EE
:100E1000EBDABBF1000F05D00FB1641E00E05446C1
:100E2000CBF80040B9F1000F06D0FFF7DDFB02213F
:100E30000160C81EBDE8F09F48EA0640FAE70000DE
:100E40002DE9F047814616468AB035487844D0E906
:100E5000002380680092CDE90130314878440C3895
:100E6000D0E90223006903924FF03702CDE9043044
:100E700041F69B30014491FBF2F0A0F1800502FBAA
:100E800010141B3C02D56442012000E00020DFF872
:100E900090A080460027FA44AAF1C60A0DE0E007B8
:100EA00009D03246684607EB47010AEB810100F0A2
:100EB000A6FF8DE8070064107F1C002CEFD1184FAF
:100EC0007F44B43F17E0E80713D007EB04100DF19F
:100ED000180A90E80E00AAE80E00C068F04201D19E
:100EE00098190890324606A903A800F088FF03ABC2
:100EF00007C36D10641C002DE5D132466946B8F178
:100F0000000F03A802D000F052FF01E000F077FFCD
:100F1000C9E90001C9F808200AB0BDE8F08700005F
:100F2000E06703003A2800D2303820F02002412A3E
:100F300001D3A2F13700884201D34FF0FF30704750
:100F40002DE9FF4F064689B00878FF2806D0491CD6
:100F50002D2805D000244FF0000908E000200CE007
:100F60000124F8E709EB8903491C00EB43090878E1
:100F7000FF28F7D114B1C9F100008146107800258F
:100F80002C46AA4629462D2801D02B2804D1521CD4
:100F90002D2813D0002082468B461078FF280FD0D2
:100FA0004FF0000C0A21521CA5FB017804FB0181C3
:100FB00005FB0C11C5194BEB0104EEE70120EAE734
:100FC000002108464FF00000BAF1000F02D000EBFC
:100FD00080004008C0F38158B8F1010F01DD4FF0E7
:100FE000FF380C9809EB000755EA040006D14FEAD8
:100FF000CA70C6E900B00DB0BDE8F08F17F5FA7FF2
:101000004FF0020904DA4FEACA70C6E900B00BE0FB
:10101000B7F5FA7F0DDDF0487844D0E90010C6E955
:10102000001040EACA707060FFF7DEFAC0F8009066
:10103000E1E7391E02DAC8F1000200E0424600DAB8
:10104000794206A8FFF7FCFE06AB07CB03AB07C34C
:1010500044F23E005BEA04010090584604D144F299
:101060001E012C465D460091210C0904014306D166
:101070000099240444EA15442D041039009104F029
:101080007F41014306D10099240244EA15642D02F0
:101090000839009104F07041014306D10099240100
:1010A00044EA15742D01091F009104F040410143E9
:1010B00006D10099A40044EA9574AD00891E009100
:1010C00004F00041084304D100986D196441401EAA
:1010D000009042466846002FCDE9014503A902DD94
:1010E00000F0A1FE01E000F076FEBAF1000F044628
:1010F0000D4601D084F0004440F2FF7724F0004018
:10110000284303D0C4F30A50B84212D1FFF76CFA57
:10111000C0F80090C4F30A50B8420AD1AF487844EE
:10112000D0E90010C6E9001004F0004108437060E7
:1011300061E7C6E900545EE72DE9FF4F1F464FF017
:10114000000A4FF0FF38454691B0D7E90146CDF887
:101150003CA0FFF773FDC0680168405C1090B9695E
:1011600012986D1C8847396A814688470028F6D155
:1011700019F101000AD0002E24F4D06412DDB9F177
:101180002B0F08D0B9F12D0F0CD102E0404615B05D
:1011900032E744F48064B96912986D1C884781462F
:1011A000A6F10106600504A901D52D2000E02B2041
:1011B000002E01F1010B0DF130088DF810003FDD1C
:1011C000B9F1690F08D0B9F1490F05D0B9F16E0F27
:1011D00002D0B9F14E0F1CD13B4601A80095A0E802
:1011E0005002DDE912126FF0020007F0D8FBC11CBB
:1011F000CDD10EE0B96912986D1C884781461398CD
:10120000761E44F4007405600F98401C002E0F9069
:1012100016DDB9F1300FEDD0B9F1780F02D0B9F188
:10122000580F0DD10F9801280AD13B46CDE9005443
:10123000DDE91212001F029607F0AFFBC11CA6D118
:10124000109989453ED144F0800406E01399681C4A
:10125000AAF1010A44F400740860B969761E129874
:101260006D1C884730288146F0D02BE010998945C5
:1012700005D1200603D4761E44F0800418E04846C9
:1012800006F05FFB08B3761E0DF123018B4544F495
:10129000007408D2A9F130000BF8010B200607D525
:1012A000AAF1010003E0200602D40AF101008246FF
:1012B000A00502D51399681C0860B96912986D1CC5
:1012C00088478146002ED1DC54E0002E52DDB9F172
:1012D000650F02D0B9F1450F4CD1A0054AD5B969C7
:1012E000761E12986D1C24F440748847002E8146A7
:1012F0000DDD2B2804D0B9F12D0F08D144F48074F2
:10130000B96912986D1C88478146A6F10106E0056F
:1013100001D52D2100E02B2108F8011BCDF800801C
:1013200021E0761E0DF13901884544F400740CD299
:10133000A9F1300010F0FF0088F8000002D10099F8
:10134000884509D908F1010806E0E00501D52448DF
:1013500001E042F20F708246B96912986D1C88470D
:10136000814613980560002E04DD484606F0E9FA30
:101370000028D6D1F96912988847FF2053468BF888
:10138000000088F8000000200A900B9004AA0CA925
:101390000AA8FFF7D5FDA00502D46FF00100F6E61C
:1013A00014F0240F0AD0E00714D13868DDE90A12DE
:1013B000031D3B600068C0E900120BE00AA9684603
:1013C00006F068FAE00705D13868009A011D396017
:1013D000006802602846DAE64C66030046650300B2
:1013E000F1D8FFFF0446AFF300802046FEF7E2FE8F
:1013F000704700002DE9FF4F1F464FF03C0987B0B2
:101400004FF00042DDE9141001F10108DDF858A0A9
:1014100002EA4050039000200490834605460446AB
:101420000590B969461E08988847AAF1010A0290FA
:10143000BAF1000F37DD02982E2815D01021FFF7E2
:1014400071FD00282ADB4FF0010B0499014316D0EF
:10145000B9F1000F0BDB4A46C11700F0F9F905435B
:101460000C43A9F1040905E00120059007E008B14B
:1014700045F0010501200490059800B9361DB969B1
:10148000089808F101088847BBF1000FAAF1010A8A
:101490000290CDD00999C1F80080C9E70298702860
:1014A00008D0502806D0F96908988847BBF1000F8A
:1014B00014D04FE0002002900120BBF1000F0490F7
:1014C00009D0B969089808F101088847AAF101090B
:1014D000B9F1000F07DCF969089888476FF001003F
:1014E0000BB0BDE8F08F2B2804D02D280CD14FF085
:1014F000FF300490B969089808F101088847A9F1FC
:101500000109B9F1000FE6DD411CE4D00A21FFF723
:1015100009FD0028DFDB029908F1010801EB8101D8
:1015200000EB41000290B969089888470A21FFF74B
:10153000F9FC099AA9F10109B9F1000FC2F800807C
:1015400001DD0028E7DAF9690898884704990298CC
:1015500000FB016655EA040001D103989CE004F009
:101560004041090004D1A40044EA9574AD00B61EC0
:1015700004F00041080002D16D196441761E1598EF
:1015800010F0240F03D04FF00B095C4803E04FF03C
:1015900028096FF07D008246564507DAAAEB06015E
:1015A0008944B9F1410F01DD4FF0410901200021CB
:1015B000A9F1010200F04CF9024628400B462140F7
:1015C000084301D0012100E00021501E029143F1A7
:1015D000FF3128402140084301D0012000E00020D5
:1015E0000299834651EA0B014FD0002108464FF083
:1015F0000000039900F4400039B100EB80004FF483
:10160000400100EBD07001EA60008015012802DD86
:101610004FF0FF3000E013D0401C36D0029860B38A
:10162000BBF1000F0CD14A460120002100F010F957
:1016300028402140084301D0012000E00020E0B113
:1016400001204A46002100F003F9034640190A46EA
:1016500061412D1A8C4111D3B9F1400F09DD159864
:1016600010F0240F02D0AAF1340603E0AAF1170605
:1016700000E0761C00254FF0004406E05B1E42F1BE
:10168000FF3220EA030521EA0204CAF10100B04258
:1016900006DA1B49039808430190002000900EE0F1
:1016A000039AC4F3D321E80A0A43164940EA445096
:1016B0000A433146CDE90002684606F037F915982D
:1016C00010F0240F0BD01598C00715D13868DDE94C
:1016D0000012031D3B600068C0E900120CE002A884
:1016E000694606F0D7F81598C00705D13868029A00
:1016F000011D3960006802604046F1E602FCFFFF10
:101700000000F07F0000F03F2DE9FF4F92461D469C
:1017100085B04FF00041DDE9124BDDE914727F1E08
:1017200001EA4B50434940F0FF4940EA01080021DB
:1017300022F020004928049102D04E282BD04FE0FF
:101740003DA00126D0E9001280680091CDE901207A
:10175000A9690698641C88477F1E014606D41DF8B7
:10176000060018B121F0200181420BD0E9690698EA
:101770008847032E34D0082E32D06FF0010009B014
:10178000BDE8F08F761C032E01D0082EE0D1601C3E
:10179000CAF80000DCE7A9690698641C88477F1E28
:1017A0002AD420F02000412826D1A9690698641C7B
:1017B00088477F1E20D420F020004E281CD1A96924
:1017C0000698641C88477F1E48F4002849F4800965
:1017D000CAF8004001D4282806D0E969069888474D
:1017E0005FEACB7012D022E0A9690698641C884792
:1017F0007F1E01D4002803DAE96906988847BCE710
:101800002928F1D1641CCAF80040E9E71BF0240F35
:1018100007D028680499031D2B600068C0E90018F0
:1018200005E02868021D2A600068C0F80090204684
:10183000A5E700000000F07F494E46494E49545943
:101840000000000001491820ABBEFEE726000200A0
:10185000B2F120030AD5C2F1200301FA02F120FA05
:1018600003F300FA02F041EA0301704700FA03F1C2
:101870004FF0000070475FEA400C08BF91F0000F86
:101880004FEA8C234FEAC12243EA51514FEA1C50E0
:1018900018BF00F5F0404FEA300018BF41F000419A
:1018A0005FEA6C5C00F02980BCF1FF3F08BF40F0AC
:1018B00080407047130C06BF12044FF0100C4FF01D
:1018C000000C130E04BF12020CF1080C130F04BF1E
:1018D00012010CF1040C930F04BF92000CF1020CE6
:1018E000D30F04BF52000CF1010C11464FF000025F
:1018F000A0F11F00A0EB0C00704711F0004F08BFD3
:10190000704731F000413FF4D5AF0B0C06BF09041E
:101910004FF0100C4FF0000C0B0E04BF09020CF13D
:10192000080C0B0F04BF09010CF1040C8B0F04BF52
:1019300089000CF1020CCB0F04BF49000CF1010C23
:10194000CCF12003A0EB0C0022FA03F302FA0CF214
:1019500041EA030100F10100704720F07F4C80EA6A
:10196000030023F07F47ACEB070303F57C5300F043
:10197000004003F1FF032DE980494FEA154B09B4FC
:101980004FEA144325EA0B4E24EA03480FF20426DB
:1019900006EB132749083E785FEA320203FB06672D
:1019A000C7F5000707FB06F64FEA54374FEAD6465D
:1019B00006F1020607FB066CCCF1005C4FEA1C47FF
:1019C0002CEA074C07FB06F40CFB06F504EB154666
:1019D0004FEA961634BF00204FF000404FEAD1374F
:1019E00006FB07FC4FEA1C4C0CFB0BF7D21B03FB5E
:1019F0000CF761EB07010CFB0EF7B0EB074072EB45
:101A000017420CFB08F734BFA2EB0742B2EB0742C8
:101A100061EB17414FEA0C444FEA910706FB07FCC4
:101A20004FEA1C4C0CFB0BF7B0EBC74072EB573284
:101A300003FB0CF734BFA2EBC742B2EBC74261EB2A
:101A400057310CFB0EF7B0EBC70072EB57720CFB73
:101A500008F734BFA2EBC702B2EBC70261EB5771C4
:101A6000039F4FEA816141EA921104EBCC044FEAF3
:101A7000D1374FEA826206FB07FC42EA90124FEA36
:101A800080604FEA1C4C0CFB0BF7D21B03FB0CF7DE
:101A900061EB07010CFB0EF7B0EB074072EB17424E
:101AA0000CFB08F734BFA2EB0742B2EB074261EB35
:101AB00017414FEA8C554FEA910704EB9C2406FB33
:101AC00007FC4FEA1C4C0CFB0BF7B0EBC74072EB6A
:101AD000573203FB0CF734BFA2EBC742B2EBC7424D
:101AE00061EB57310CFB0EF7B0EBC70072EB57728E
:101AF0000CFB08F734BFA2EBC702B2EBC70261EBE5
:101B0000577115EB4C254FEA816141EA92114FEA7A
:101B100082624FEAD13742EA901206FB07FC44F199
:101B200000044FEA80604FEA1C4C0CFB0BF7D21B01
:101B300003FB0CF761EB07010CFB0EF7B0EB074062
:101B400072EB17420CFB08F734BFA2EB0742B2EB73
:101B5000074261EB174115EB1C154FEA813141EA51
:101B600092414FEA823242EA90424FEA80304FEA95
:101B70000C7644F1000448EA03434EEA0B484FF068
:101B8000000EB2EB080C71EB030724BF6246394626
:101B90004EEB0E0E4FF0000B0018524149414BEB3B
:101BA0000B0BB2EB080C71EB03077BF1000B24BFAE
:101BB000624639464EEB0E0E4FF0000B00185241B4
:101BC00049414BEB0B0BB2EB080C71EB03077BF1BC
:101BD000000B24BF624639464EEB0E0E51EA020757
:101BE00018BF46F0010616EB0E7655F1000254F1CF
:101BF000000103D5BDE88901BDE80088BDE8890181
:101C0000BDE80048B619524141EB0101A3F10103BF
:101C1000704780807F7E7D7C7B7A79787776767559
:101C20007473727171706F6E6E6D6C6C6B6A6A69D1
:101C30006868676666656464636362616160605F6B
:101C40005F5E5E5D5D5C5C5B5B5A5A5959585857E4
:101C5000575656555555545453535252525151504C
:101C600050504F4F4F4E4E4D4D4D4C4C4C4B4B4B9F
:101C70004A4A4A49494948484847474747464646E5
:101C80004545454444444443434343424242424120
:101C90004141000046EA0646A3F570534FEA164656
:101CA00046EA42564FEAD22242EA415210B54FEA82
:101CB000D121A3F1010300F017F820F0004000F15A
:101CC000010C00F0004701EB00501146BCF5006F1D
:101CD00040EA070000D210BD02484FF0000140EA80
:101CE000070010BD0000F07F002B26D4770021D024
:101CF0001CB54FEA370703B44FF010004FF0100146
:101D00004FF000000FBCBDE810400BF1010BBBF120
:101D1000010F08BF5FEA170722BF12F1010211F19C
:101D200001014FF0004143F1000300F0004043EA9D
:101D300000007047F9D35708DAE746EA064613F180
:101D4000400F4FEA16461FDD13F1200FDFBF164389
:101D50000A46002120335B42C8D0C3F1200746EA7F
:101D6000064602FA07F74FEA164646EA0706C3F1A7
:101D7000200722FA03F201FA07F721FA03F14FF0E4
:101D8000000342EA0702B1E746EA020646EA0646CF
:101D90004FEA164646EA0106BCBF46EA0646360C3E
:101DA0004FF000034FF000024FF000019EE72DE9D5
:101DB000C048934630B491E8380007C831EA400C77
:101DC00048BF34EA430C03D5FFF7C7FDFFF78CFF8C
:101DD000F0BCBDE800882DE9C048934630B491E8D6
:101DE000380007C831EA400C48BF34EA430C03D539
:101DF000FFF7B3FDFFF74EFFF0BCBDE800882DE90B
:101E0000C048934630B491E8380007C810F0804FBE
:101E100008BF13F0804F03D100F019F8FFF764FFFB
:101E2000F0BCBDE800882DE9C048934630B491E885
:101E3000380007C810F0804F08BF13F0804F03D15F
:101E400000F005F8FFF726FFF0BCBDE8008820F0A1
:101E50007F4780EA030023F07F4C07EB0C03A3F5D8
:101E60007C5300F00040A3F1FE0392F0000F00F05D
:101E7000B38095F0000F00F077802DE901494FEA1B
:101E800011404FEA144621EA004800FB06FC24EA10
:101E9000064708FB06F607FB08F800FB07F718EBF8
:101EA00006484CEB164C4FEA124B18EB07484FEA2A
:101EB00015464CEB174022EA0B4E0BFB06FC25EABD
:101EC00006470EFB06F607FB0EFE0BFB07F71EEBA5
:101ED000064E4CEB164C4FF000061EEB074E4CEB3B
:101EE000174B18EB0B0840F1000018EB0E0B58EBEA
:101EF000000840F100008F1A4FF000013CBFC943B9
:101F0000661B14BFB5EB040C00213CBFC943F61B94
:101F10004FEA17444EEA8E0E27EA04454FEA1C4763
:101F200004FB07622CEA074C05FB07F70CFB05F6E0
:101F300004FB0CFC16EB074642EB174216EB0C4673
:101F400042EB1C421BEB060658EB0202414146EAFB
:101F50009E0601D5BDE80189B619524141EB010148
:101F6000A3F10103BDE801894FEA14454FEA114787
:101F700024EA054621EA074C05FB07F406FB07F7B0
:101F80000CFB06F105FB0CFC11EB074144EB17447D
:101F90004FEA124711EB0C4144EB1C4422EA074C78
:101FA00005FB07F206FB07F70CFB06F605FB0CFC2E
:101FB00016EB074642EB174216EB0C4642EB1C456C
:101FC0006A1854F1000148BF7047B619524141EBFD
:101FD0000101A3F10103704795F0000F37D04FEADC
:101FE00011424FEA144721EA024624EA074C02FB59
:101FF00007F106FB07F70CFB06F402FB0CFC14EBE5
:10200000074441EB17414FEA154714EB0C4441EBF1
:102010001C4125EA074C02FB07F506FB07F70CFB02
:1020200006F602FB0CFC16EB074645EB174516EBD4
:102030000C4645EB1C42121951F1000148BF704794
:10204000B619524141EB0101A3F1010370474FEA78
:1020500014454FEA114724EA054621EA074C05FBDF
:1020600007F106FB07F70CFB06F24FF0000605FB35
:102070000CFC12EB074241EB174112EB0C4251EB07
:102080001C4148BF7047921841EB0101A3F10103C5
:102090007047000000480047F900000800298168E7
:1020A00014BF41F0010121F0010181607047002956
:1020B000816814BF41F4807121F4807181607047A0
:1020C00001460020896811F0040F18BF01207047F5
:1020D00001460020896811F0080F18BF01207047E1
:1020E000426891F804C022F4807222F470220B68D6
:1020F00042EA0C221A43426082680B4B1A40D1E933
:1021000002C343EA0C0391F805C042EA4C021A43A9
:102110008260C26A097C22F47002491EC9B242EA96
:102120000151C16270470000FDF7F1FF10B5FEF7E5
:102130004BF80A490A78521C0A70FEF749F8022047
:1021400000F056FD30B106480649008808600220BC
:1021500000F0C4FCBDE8104003F0A8B84E00002019
:10216000040000200800002030B4072509290CD9FC
:10217000C468A1F10A0C0CEB4C0C05FA0CF5AC434D
:1021800003FA0CF32343C36009E0046901EB410C3B
:1021900005FA0CF5AC4303FA0CF3234303614FF04B
:1021A0001F0C072A0CD2436B521E02EB82020CFA60
:1021B00002FC23EA0C0391401943416330BC704791
:1021C0000D2A0CD2036BD21F02EB82020CFA02FC26
:1021D00023EA0C0391401943016330BC7047C36A82
:1021E0000D3A02EB82020CFA02FC23EA0C03914046
:1021F0001943C16230BC7047816841F008018160B9
:1022000070470029816814BF41F4A00121F4A001A6
:1022100081607047816841F004018160704710B5AA
:1022200005211D2002F0D8FD64210020401C8842B9
:10223000FCD300211E2002F0CFFD64210020401CB1
:102240008842FCD300211F2002F0C6FD642100203B
:10225000401C8842FCD30021202002F0BDFD6421F7
:102260000020401C8842FCD30A21212002F0B4FD4A
:1022700064210020401C8842FCD36421222002F00B
:10228000ABFD64210020401C8842FCD36421232044
:1022900002F0A2FD64210020401C8842FCD31021E2
:1022A000242002F099FD64210020401C8842FCD3C8
:1022B0000521252002F090FD64210020401C884269
:1022C000FCD30121262002F087FD64210020401C60
:1022D0008842FCD3FF21272002F07EFD64210020EC
:1022E000401C8842FCD30921282002F075FD64219E
:1022F0000020401C8842FCD3FF21292002F06CFD05
:1023000064210020401C8842FCD307212A2002F0CF
:1023100063FD64210020401C8842FCD30A212C204C
:1023200002F05AFD64210020401C8842FCD3282181
:102330002D2002F051FD64210020401C8842FCD376
:10234000FF212E2002F048FD64210020401C88421D
:10235000FCD300212F2002F03FFD64210020401C0F
:102360008842FCD32B21312002F036FD642100206D
:10237000401C8842FCD39F21382002F02DFD6421AF
:102380000020401C8842FCD310BD02F0A5BC704761
:102390007047704700F0D0F803F0D8FA04F0E6FD7B
:1023A00003F090F801F090F901F042FA01F0B8FD65
:1023B00001F0F4FE154C4FF48051204601F081F9F4
:1023C00000224FF4FA731146104603F023FAA114C9
:1023D000204601F074F961150D4801F070F90022F2
:1023E0004FF4FA731146104603F014FA4FF40051FB
:1023F000204601F064F900224FF4FA7311461046AA
:1024000003F008FA02F058FDE9E70000001401406B
:10241000000C014070477047704700002DE9F843F9
:1024200001217C2004F0ECFB40F21110ADF800001B
:1024300010243C4E8DF8034003258DF80250694668
:10244000304601F0D7F840F20320ADF80000364FD7
:102450008DF803408DF802506946384601F0CAF8FD
:1024600042F22000ADF80000DFF8C0808DF8034094
:102470008DF802506946404601F0BCF82803ADF8DB
:102480000000DFF8AC908DF803408DF802506946EB
:10249000484601F0AFF80820ADF800008DF8034081
:1024A0008DF80250234D6946284601F0A3F80F200D
:1024B000ADF8000048248DF803406946284601F035
:1024C00099F82020ADF800008DF8034069463846A1
:1024D00001F090F84020ADF800008DF80340694607
:1024E000484601F087F86020ADF800008DF8034001
:1024F0006946284601F07EF80121304601F0E1F8F6
:102500001021304601F0DDF86914404601F0D9F899
:102510001021284601F0D5F86915384601F0CFF8AA
:10252000BDE8F88300080140000C014000100140A4
:1025300000140140001801402DE9F04387B000F07D
:10254000F9F904F069FB4FF4803004F0FFFB04F06C
:1025500047FC012828D1002004F0EEFB002004F005
:102560001BFC4FF4806004F00DFC4FF4004004F0BD
:1025700031FB022000F0EAFD102000F0BDFD4FF419
:10258000E0114FF4803004F017FC012004F00EFC41
:10259000392004F0B1FB0028FAD0022004F016FC28
:1025A00004F0C2FB0828FBD100F0DCFD00F080FB4A
:1025B00045F2555002F094FC032002F085FC40F6F1
:1025C000FF7002F087FC02F077FC02F06DFC242023
:1025D00000F0D6F9292000F0D3F9002000F0D0F95E
:1025E0000121084604F000FB0121480204F008FB29
:1025F0000226724FADF8006000248DF80340694652
:10260000384600F0F7FF4FEA7738404600F07CFA92
:102610006C486B49012501606B49C560C0E9011434
:102620008021C0E90441490081618900C161202104
:1026300001624FF44051C0E909140146404600F0E0
:10264000EFFA62490B2000F089F90B2000F0CEF878
:1026500001220221404600F0DBFA0121404600F051
:1026600049FA5B484FF46021DFF868810460057126
:102670004471C0E90214057401464046FFF730FD7D
:102680000122002311464046FFF76EFD012140461E
:10269000FFF70DFD01214046FFF700FD4046FFF723
:1026A000ABFD4046FFF714FD0028FAD14046FFF786
:1026B000B1FD4046FFF704FD0028FAD1012108468C
:1026C00004F09EFA0121080304F09AFA0121042083
:1026D00004F096FA0121082004F092FA012110205A
:1026E00004F08EFA0121402004F08AFAE020ADF8CF
:1026F00000004FF003088DF8028018208DF80300C9
:102700006946B946384600F075FF1120ADF8000063
:1027100010278DF803708DF802806946484600F056
:1027200069FFADF8005069462B4800F063FF42F2A4
:102730002000DFF8A880ADF800006946404600F0B0
:1027400059FFADF80070264F6946384600F052FF39
:102750000121484600F0B5FF1021484600F0B1FFC6
:102760007914404600F0ADFF1021384600F0A9FF73
:10277000ADF804404FF48270ADF80600ADF80C508F
:102780007815ADF80E003820ADF81000ADF808400F
:10279000ADF812400720134CADF81400ADF80A60F4
:1027A00001A9204604F050FB0121204604F038FB2B
:1027B00007B0BDE8F043FFF731BE0000000801405C
:1027C0004C24014088080020040000202D2100082E
:1027D000B408002000240140000C0140001001401A
:1027E0000018014000300140FDF7EABC2A2828BF4C
:1027F00070471030C0B200F00FB9000010B50446A9
:10280000FDF7E2FC08490A78521C0A70FDF7E0FC6B
:102810002A2C05D2054850F82400002818BF80470C
:10282000BDE8104002F042BD4E000020C808002064
:102830001220FFF7E3BF1520FFF7E0BF1620FFF7D8
:10284000DDBF0B20FFF7DABF0C20FFF7D7BF0D204D
:10285000FFF7D4BF0E20FFF7D1BF0F20FFF7CEBF89
:102860001020FFF7CBBF1120FFF7C8BF704706202D
:10287000FFF7C4BF0720FFF7C1BF2820FFF7BEBF87
:102880000820FFF7BBBF0920FFF7B8BF0A20FFF7FA
:10289000B5BF1720FFF7B2BF0420FFF7AFBF20205E
:1028A000FFF7ACBF1F20FFF7A9BF2220FFF7A6BF8D
:1028B0002120FFF7A3BF0120FFF7A0BF0520FFF7EE
:1028C0009DBF0320FFF79ABF2920FFF797BF232062
:1028D000FFF794BF2420FFF791BF0220FFF78EBFC0
:1028E0001820FFF78BBF1B20FFF788BF1A20FFF7C8
:1028F00085BF1920FFF782BF1C20FFF77FBF1D2077
:10290000FFF77CBF1E20FFF779BF2520FFF776BFBA
:102910002620FFF773BF2720FFF770BF2A20FFF79D
:102920006DBF1320FFF76ABF1420FFF767BF0020B9
:10293000FFF764BF70B5074E0024074D2A2C05D25F
:10294000FDF742FC46F82450FDF742FC641C2A2C9B
:10295000F3D370BDC80800206D2800082A2828BFBE
:10296000704770B50D460446FDF72EFC034941F84B
:102970002450BDE87040FDF72BBC0000C8080020C3
:10298000244901222F281CD022DC242819D013DC52
:10299000082833D008DC072828BF7047DFE800F09C
:1029A0002E2E2E172E172E000A2827D020281EBFC5
:1029B00022282328704704E0A0F12503092B88BFB3
:1029C00070478B69203802FA00F01843886170471D
:1029D00040381E2828BF7047DFE800F0161616168C
:1029E00016160F0F0F0F0F160F0F16160F161616BF
:1029F000161616160F160F161616E8E74B6902FA8A
:102A000000F0184348617047CB6902FA00F01843A0
:102A1000C8617047001002402DE9F041102836D2FD
:102A2000DFE800F05858585808131E58585858589E
:102A300058585829FDF7C8FB27490A6842F48032E4
:102A40000A60BDE8F041FDF7C3BBFDF7BDFB2249BD
:102A50000A6842F400320A60BDE8F041FDF7B8BBF5
:102A6000FDF7B2FB1C490A6842F480220A60BDE807
:102A7000F041FDF7ADBBFDF7A7FB4FF0E0210A6980
:102A800042F001020A61BDE8F041FDF7A1BB4FF041
:102A9000E02671680127491C07EB4111C9B2884241
:102AA00028BFBDE8F081A0F11001CA1701EBD26187
:102AB000C1F34715103821F01F01441AFDF784FBBC
:102AC00006EB850207FA04F1C2F80011BDE8F041F7
:102AD000FDF77EBBBDE8F08124ED00E010F0805FE3
:102AE00019BF024908600249486070470404024067
:102AF000000002400029016814BF41F0010121F0EB
:102B00000101016070470000016821F001010160CE
:102B10000021016041608160C160304B304AC11AC0
:102B2000984204BF506840F0706019D027DC2D4BEC
:102B3000A0EB0301984204BF506840F470400FD0EE
:102B400010DC294940183DD0142804BF506840F0DB
:102B5000F00005D0282806BF506840F47060704728
:102B600050607047142904BF506840F47020F7D0BB
:102B7000282904BF506840F47000F1D070471B480A
:102B8000B1F56C7F04BF016841F4706124D00ADCA8
:102B9000B1F5627F1BD0B1F5677F06BF016841F0D8
:102BA000F001704718E0B1F5717F04BF016841F48E
:102BB000704111D0B1F5767F04BF016841F47021F6
:102BC0000AD07047506840F00F00506070470168AD
:102BD00041F00F01016070470160704780000240C2
:102BE0000000024044000240F8FFFDBF0404024020
:102BF000002210F0805F14BF0349044909680142B4
:102C000018BF012210467047000402400000024035
:102C1000002A026814BF114322EA010101607047D3
:102C200010B40268D1F820C08B686FF30E1243EA2B
:102C30000C03D1E904C44CEA040C43EA0C03D1F8B8
:102C400018C043EA0C03D1F81CC043EA0C03D1F8C6
:102C500024C043EA0C03D1F828C043EA0C031A430A
:102C60000260CA6842600A6882604968C16010BC3C
:102C7000704700000C490A880C49098860B1012896
:102C800010D14EF6EE6009B11AB107E0824207D1C9
:102C900008E0814204D005E022B109B1AB207047C1
:102CA000012070470020704700F0070800F807086F
:102CB0002DE9F05FDFF858820024651EB8F8001097
:102CC00094480088DFF854922A0CDFF84CB2A9F13E
:102CD000020A002973D0A1F56E41EE393BD0A1F56F
:102CE0008851113907D0404600F0E4F9042840F03B
:102CF000088100F0FDB8A0B1A0F56E41EE39404664
:102D000017D100F0D7F9042818BFBDE8F09F0021C3
:102D1000804800F0FDF9042818BFBDE8F09F00F0DE
:102D2000F4B8404600F0C6F9042818BFBDE8F09F8B
:102D3000EBE000F0BFF9042808D10021404600F084
:102D4000E7F9042804BF734800F0B4F9042818BF59
:102D5000BDE8F09FD9E088B1904254D16D4800F0B1
:102D6000A9F9042818BFBDE8F09F0021404600F0F3
:102D7000CFF9042818BFBDE8F09FC6E0B8F80600F8
:102D800039F81470B84208BF25B2AC4227D00126EA
:102D90000020FFF76FFFAB2808BFAB2613D008EB6E
:102DA000C0210BEBC0208A1C90420CD90188B9428B
:102DB00006D130F8020CAAF80000002603E035E046
:102DC000001F9042F2D8012E09D039F81400BAF849
:102DD000001000F0CDF8042818BFBDE8F09F601C7B
:102DE0000404240CCAD00021404600F091F90428C4
:102DF00018BFBDE8F09F474800F05CF9042818BFF1
:102E0000BDE8F09F81E0404600F054F9042808D165
:102E10000021404600F07CF9042804BF3D4800F042
:102E200049F9042818BFBDE8F09F6EE048B1904210
:102E30001AD1384800F03EF9042818BFBDE8F09FC9
:102E400063E0404600F036F9042808D100214046EE
:102E500000F05EF9042804BF2E4800F02BF9042886
:102E600018BFBDE8F09F50E02D48008839F8147075
:102E7000B84208BF25B2AC4226D001260020FFF799
:102E8000F9FEAB2808BFAB2612D008EBC0210BEB34
:102E9000C0208A1C90420BD90188B94205D130F874
:102EA000020CAAF80000002602E0001F9042F3D8AE
:102EB000012E09D039F81400BAF8001000F058F8C3
:102EC000042818BFBDE8F09F601C0404240CCBD07C
:102ED0000021104800F01CF9042818BFBDE8F09F3D
:102EE000404600F0E7F8042818BFBDE8F09F0CE06A
:102EF0000021404600F00CF9042804BF054800F00A
:102F0000D9F8042818BFBDE8F09F0420BDE8F09F61
:102F100000F0070800F80708FEF707080200002085
:102F200006F8070870B504460E4601250020FFF795
:102F3000A1FEAB2808BF70BD0B490C4A01EBC021B4
:102F400002EBC02201F1020C62450AD91388A342A8
:102F500004D132F8020C3080002502E0121F6245D5
:102F6000F4D8284670BD000000F00708FEF70708F7
:102F700070B505460E460120FFF77CFEAB2808BF62
:102F800070BD0E4901EBC0240D4901EBC020A042E9
:102F900005D92168491C04D0241DA042F9D88020FD
:102FA00070BD3146204600F0B3F8042818BF70BD4C
:102FB0002946A01CBDE8704000F0AAB800F0070840
:102FC000FEF707082DE9F05F88460746FFF7D0FFB8
:102FD000802818BFBDE8F09F00242046FFF74AFE76
:102FE000DFF8C0A0AB26304D012808BFAB4606D0A5
:102FF000002807BFD346AA463046BDE8F09F4EF6EC
:10300000EE61584600F084F8042818BFBDE8F09F30
:1030100041463846FFF7ACFF042806BFDFF88C8036
:10302000A8F10209BDE8F09F38F81460BE4228D02C
:1030300001250020FFF71EFEAB2808BFAB2514D0EA
:1030400019491B4A01EBC02102EBC0208A1C9042A7
:103050000BD90188B14205D130F8020CA9F8000063
:10306000002502E0001F9042F3D8012D09D038F866
:103070001400B9F80010FFF77BFF042818BFBDE863
:10308000F09F601C0404240CCED0504600F012F8CF
:10309000042818BFBDE8F09F00215846BDE8F05F46
:1030A00000F036B800F8070800F00708020000201A
:1030B000FEF7070830B5054640F6FF7000F05EF8F1
:1030C000042818BF30BD0B4C206940F0020020617D
:1030D0006561206940F04000206140F6FF7000F01B
:1030E0004DF8012808BF30BD216941F6FD7211403D
:1030F000216130BD0020024004490A6822F010021C
:103100000A600A681043086070470000002002400F
:1031100070B506460D460F2000F030F8042818BFA1
:1031200070BD094C206940F00100206135800F20FE
:1031300000F024F8012808BF70BD216941F6FE7235
:103140001140216170BD00000020024004490A685E
:1031500002F038020A600A681043086070470000F5
:103160000020024003480249416003494160704722
:103170002301674500200240AB89EFCD1F4A01467D
:1031800081B0D368042013F0010F18BF01200AD1C9
:10319000D36813F0040F18BF022004D1D36813F0D2
:1031A000100F18BF0320FF2319E00098401E009065
:1031B000FBD1D2F80CC004201CF0010F18BF012075
:1031C0000CD1D2F80CC01CF0040F18BF022005D19E
:1031D000D2F80CC01CF0100F18BF0320491E0128A4
:1031E00006D000291CBF01B07047052001B0704710
:1031F000002918BF0093D8D1F7E700000020024053
:103200004FF0204202EB80000029016812BF41F01C
:103210000101024A1140016070470000FEFF0F00EB
:1032200010B4D0E901121143D0E903231A4311432A
:1032300042690368114382691143C2691143026AFA
:103240001143426A1143826A1143C26A1143026BFD
:1032500011434FF0204242F823108168082906D11B
:10326000016802EB81010B6843F040030B60416B86
:10327000D1E9003C43EA0C13D1F808C08C894FEA2D
:103280000C2C4CEA044C43EA0C03B1F810C043EA9E
:103290000C5391F814C0896943EA0C63194303681D
:1032A00002EB83035960816AB1F5804F08D0006852
:1032B0006FF0704102EB8000C0F8041110BC704741
:1032C000816B0068D1E9003C43EA0C13D1F808C0D7
:1032D0008C894FEA0C2C4CEA044C43EA0C03B1F8FD
:1032E00010C002EB800043EA0C5391F814C08969C6
:1032F00043EA0C631943C0F8041110BC7047000086
:1033000008B5014600200A784978A2F1A103042BF0
:103310002CD8A12A06D0A32A0ED0A42A14D0A52ADC
:103320001AD020E0A1291ED3BF2998BF47F660100C
:1033300019D800EB411008BDA12914D3FE2998BF6C
:1033400047F64050F5D90EE0A1290CD3F32998BFD8
:103350004FF40940EDD906E0A12904D3F62998BF1E
:1033600049F26030E5D948F6805008BDA2F1B003BB
:10337000272B0CD8A1F1A10CBCF15D0F07D8C3EB32
:10338000031000EB431001EB400010491AE0D83A5B
:103390001F2A9ABFA1F1A1035D2B08BDC2EB021049
:1033A00000EB421001EB40000949022201EB400111
:1033B000684601F085FB9DF801009DF8001000EBC8
:1033C0000120044901EB401008BD00000C59010028
:1033D0004A5401000C6D01002DE9F04782B0002431
:1033E0008246047008780D46264600284DD03A4F94
:1033F0004FF6FF7941F61558295D04F101007F2948
:103400004AD982B209EA0120A95C0844511C80B261
:103410008CB2002237F82210814203D107EB8200E0
:10342000418803E0521C9045F4DC3146F1B101F0D3
:103430000F00092894BF303037308DF80300090998
:1034400001F00F0009288CBF373030308DF80200B2
:10345000090901F00F0009288CBF373030308DF892
:1034600001000809092835D9373003E002B00020EF
:10347000BDE8F0878DF800008DF80460694650467D
:10348000FDF764F8285D0028B6D15046FDF73FF8F7
:1034900002B080B2BDE8F08784B201F00F000928C5
:1034A0008CBF373030308DF80300080909288CBFF5
:1034B00000F1370100F130018DF8021000090928F0
:1034C0008CBF00F1370100F130018DF801100009C7
:1034D0000928C9D83030CDE79C8B0008414810B48A
:1034E0000022027042708270C0E90222C0E9042208
:1034F00002764276C0E908228262C0E90B220021EE
:10350000C163C0E90D21C0E9101137494D200123E5
:1035100008704B70002001EB400C401CACF80220FE
:103520002428F8DB0020C1E91400C1E916008A66EE
:10353000C1E91800DFF8B4C001468CF80020ACF8EF
:10354000022001EB81000CEB4000491C428182818A
:103550008280C28002722429F3DB2548CCF86C21DA
:10356000562101700024C0E902444FF03F0C80F85E
:1035700010C0427480F83120C0E91644C0E91844F4
:10358000C0E91A44C0E91C44C0E91E4480F8801018
:10359000C0F8842000F5B9604FF4FA6C02704270F4
:1035A0008270C1700021C0E90211C0E90411C0E9B4
:1035B0000611C0E9081180F8283080F82930A0F8F9
:1035C0002AC08263C0E90C11A0F5A86002704270A5
:1035D0008270C3700371A0F806C002724272C260AA
:1035E00010BC704768140020B01400202015002083
:1035F000901600202DE9F00191F803C000220CF094
:103600000F031CF0100F1CBF91F802C04CEA03031B
:1036100091F800C00F270126BCF1000F18BF046805
:103620001CD00D8806FA02FC05EA0C05654511D18F
:10363000950007FA05F824EA080403FA05F52C4377
:10364000CD78282D08BFC0F814C003D0482D08BF7E
:10365000C0F810C0521C082AE3D304600A88FF2A6D
:1036600087BF44680022BDE8F001704702F1080CF2
:103670000D8806FA0CFC05EA0C05654511D195008C
:1036800007FA05F824EA080403FA05F52C43CD7877
:10369000282D08BFC0F814C0CD78482D08BFC0F849
:1036A00010C0521C082AE1D34460BDE8F001704705
:1036B0000246002092680A4218BF0120704741610B
:1036C0007047016170470000F0B5234C87B00025BA
:1036D0002570A560FFF702FF0121202003F090FA7A
:1036E0000820ADF8000003268DF8026010201B4F63
:1036F0008DF8030069463846FFF77CFF08213846FD
:10370000FFF7DFFF002301221946184602F082F876
:1037100008213846FFF7D3FF002001F0FFFD05AA7E
:103720000FA1E06001F0EAFC104801AA802163C209
:1037300004210B4600F5FE72009100210C4801F0B7
:10374000DDFE05AA0BA1042001F03AFF07B0BDE899
:10375000F04000F015B800002000002000140140E7
:10376000475053205369676E616C00002817002092
:10377000BD38000875432F475053205461736B00C8
:1037800010B588B04FF4165000900020ADF8080036
:103790000C21ADF80400ADF80A10ADF806004FF4A6
:1037A0000071ADF81800ADF81C10ADF80C00ADF8C4
:1037B0001A00ADF81E005220FFF7E2F82320FFF7B1
:1037C000DFF84FF48060ADF8100003208DF8120090
:1037D0001820134C8DF8130004A92046FFF70AFFA8
:1037E000E114ADF8101004218DF8131004A920463F
:1037F000FFF700FF0B4C6946204603F0DFFF06A9E8
:10380000204603F07FFF0121204603F08DFF06498B
:103810002720FFF7A3F82720FEF7E8FF08B010BD28
:10382000000C0140004800404138000802F0D4BFBD
:10383000012240F22551014803F0A7BF0048004093
:1038400010B5FCF7C1FC1B490A78521C0A70FCF742
:10385000BFFC194840F22551044603F075FF50B1F2
:10386000204603F0F3FFC0B2FFF7E0FF40F225511E
:10387000204603F040FF40F22771204603F064FF2A
:1038800030B100F017F940F22771204603F033FF02
:103890000821204603F051FF012806D108212046C7
:1038A00003F026FF204603F0D1FFBDE8104001F0F1
:1038B000FDBC00004E00002000480040A4B053486A
:1038C000002100904FF4A073F022084603F092FE0E
:1038D000504C9DF825004E4E8DF8240004F5FE65F1
:1038E00004F1B80722AA0021F06801F03FFD00238F
:1038F00001221946184601F08DFFD4E90401CDE9F3
:103900000001D4E9022344A14E48FCF7C1FC01F0B8
:103910003DF90890D4E90A01CDE90601D4E9040192
:10392000CDE90401D4E90201CDE90201A0780090BB
:103930002078637800F1080243A15048FCF7A8FC06
:103940002278A17802F10803607895F82820039185
:103950000092CDE9013095F829306A8D48A109A877
:10396000FCF796FC09AA4FF49671412003F04AFC3B
:10397000D5E9022348A109A8FCF78AFC09AA1E215F
:103980002D2003F03FFCD5E9042343A109A8FCF74F
:103990007FFC2D2109AA084603F034FCD4E90A2350
:1039A0003EA109A8FCF774FC09AA3C212D2003F0D4
:1039B00029FCD5E9062339A109A8FCF769FC09AA65
:1039C0001E21AA2003F01EFCD5E90C2333A109A86F
:1039D000FCF75EFC09AA2D21AA2003F013FC637EEC
:1039E0007A8830A109A8FCF753FC09AA05217820A0
:1039F00003F008FCD4E9082328A109A8FCF748FC37
:103A000009AA3C21AA2003F0FDFB6BE7F0FF0008A8
:103A10002000002068140020687474703A2F2F640E
:103A20006974752E676F6F676C652E636E2F6D619D
:103A300070733F713D25662C256626743D68267A95
:103A40003D313700281B0020253264B5E325326460
:103A5000B7D6253264C3EB0ACEB3B6C83A25660A98
:103A6000BEADB6C83A25660AB8DFB6C83A25660ABA
:103A7000CEC2B6C83A2532640D0A00008C1B002065
:103A80002534642D2532642D253264202532643A94
:103A90002532643A2532640025660000252E3566FD
:103AA000000000002532642825326420696E2075EC
:103AB000736529007047000010B505A000F0CCFF29
:103AC00064230022BDE810401146104601F0A2BE5A
:103AD0004154410D0A00000010B501780446312917
:103AE0000CBF09A009A000F0B7FF204600F0B4FF0A
:103AF00008A000F0B1FF0022BDE810404FF4FA73B7
:103B00001146104601F086BE415444004154442BF6
:103B1000000000003B0D0A0070B52E4C0126002568
:103B2000627942B1214609894B1C9BB2012A0AD015
:103B3000022A3ED134E00A2802D02B2818BF70BDDB
:103B40002581667170BD244A2C2809D03A2818BFF7
:103B50000D2805D0505423810F2B38BF70BD28E0AD
:103B600039B355540220607125811CA11A48FCF715
:103B7000F9FC002802BF6670267070BD19A11648B6
:103B8000FCF7F0FC002804BFA670032018D017A192
:103B90001148FCF7E7FC002808BF2671257070BDAE
:103BA000154A0D2807D050542381B3F5C87F38BF7C
:103BB00070BD657170BD2078002818BF401E01D00F
:103BC000207070BD55540C49A1F10F0000F084FA2B
:103BD000657170BD14000020BC0F00202B434D54B4
:103BE000000000002B434D47520000002B4349507A
:103BF00047534D4C4F430000CB0F002010B53EA063
:103C000000F02AFF002301221946184601F002FEA7
:103C10003BA000F021FF002301221946184601F0C5
:103C2000F9FD3BA000F018FF0023012219461846B9
:103C300001F0F0FD39A000F00FFF0023012219462A
:103C4000184601F0E7FD39A000F006FF002301222D
:103C50001946184601F0DEFD38A000F0FDFE0023F5
:103C600001221946184601F0D5FD38A000F0F4FEF7
:103C7000002301221946184601F0CCFD36A000F0C1
:103C8000EBFE002301221946184601F0C3FD37A0C0
:103C900000F0E2FE002301221946184601F0BAFDA9
:103CA00035A000F0D9FE002301221946184601F084
:103CB000B1FD354800F0D0FE0022642311461046C5
:103CC00001F0A8FD314800F0C7FE00226423114630
:103CD000104601F09FFD2E4800F0BEFE0022642336
:103CE0001146104601F096FD2A4800F0B5FEBDE8E9
:103CF000104000F0C9BE000041540D0A0000000051
:103D000041542B4950523D3131353230300D0A008B
:103D100041542B434D47463D310D0A0041542B433E
:103D20004950484541443D310D0A000041542B4360
:103D30005343533D2247534D220D0A0041542B4318
:103D4000504D533D22534D220D0A000041542B4348
:103D50004C49503D310D0A0041542B434E4D493DD5
:103D6000322C322C302C302C310D0A0041542B4394
:103D70005343413F0D0A000041542B434D47443DFE
:103D8000312C340D0A0000007C8B00085C8B00088D
:103D90004C8B00083C8B000810B58EB00446FCF735
:103DA000B6FB82B20CA16846FCF772FA684600F0D6
:103DB00053FE00224FF4FA731146104601F02AFD1B
:103DC000204600F049FE00224FF4FA7311461046D7
:103DD00001F020FD0EB010BD41542B434950534516
:103DE0004E443D25640D0A0070B505460C461DA0E5
:103DF00000F032FE002301221946184601F00AFDA8
:103E00001CA000F029FE002301221946184601F0EB
:103E100001FD1BA000F020FE0023022219461846D7
:103E200001F0F8FC19A000F017FE00230222194649
:103E3000184601F0EFFC18A000F00EFE284600F036
:103E40000BFE1AA000F008FE204600F005FE0EA0B2
:103E500000F002FE0023BDE8704005221946184616
:103E600001F0D8BC41542B43474154543D310D0A15
:103E70000000000041542B435354540D0A0000002D
:103E800041542B43494943520D0A000041542B43EE
:103E9000494653520D0A000041542B434950535494
:103EA0004152543D22554450222C2200222C000025
:103EB00000281CBF0029002BDCBF0020704770B415
:103EC0004FF0000C6446664694420CD010F80C503B
:103ED0006DB12C2D08BF641C0CF1010C10F80C50B6
:103EE000002DF1D105E010F80C202C2A01D0002281
:103EF0000BE00E7070BC002070478C54521C0CF10B
:103F0000010C934201DC5A1E05E010F80C402C2CE9
:103F100018BF002CF1D18E5470BC012070470000F6
:103F200010B5134886B00024047040211148FFF7F3
:103F3000BFFB002808BF00F07BF90321CDE9034156
:103F40000521009180220C48CDE901020B4600F5C5
:103F5000FE720021094801F0D1FA05AA08A1052046
:103F600001F02EFB06B0BDE8104000F00FB80000D5
:103F700019000020001401407009002029460008A3
:103F800075432F47534D205461736B0030B589B092
:103F90004FF4E13000900020ADF808000C21ADF89E
:103FA0000400ADF80A10ADF806004FF40071ADF84A
:103FB0001800ADF81C10ADF80C00ADF81A00ADF803
:103FC0001E005120FEF7DCFC2220FEF7D9FC042461
:103FD000ADF8104003208DF812001820124D8DF816
:103FE000130004A92846FFF705FB0821ADF81010BF
:103FF0008DF8134004A92846FFF7FCFA0B4C6946DC
:10400000204603F0DBFB06A9204603F07BFB0121E1
:10401000204603F089FB06492620FEF79FFC262058
:10402000FEF7E4FB09B030BD000801400044004049
:10403000AD41000870B588B004460B786846002290
:1040400033B18B5C8354521C92B28B5C002BF8D141
:1040500000268654FCF75BFA10F0010F6D4615D070
:1040600013A1284602F034FF9DF80000002150B152
:104070006818621840786054685C5070881C81B27F
:10408000685C0028F4D1665408B070BD9DF800004B
:1040900000210028F7D06818621840786054685CE6
:1040A0005070881C81B2685C0028F4D1EBE70000F6
:1040B0004600000010B503A000F0CEFCBDE81040A3
:1040C00000F0E2BC41542B43495047534D4C4F4301
:1040D0003D312C310D0A00002DE9F0411E4D804686
:1040E0000F46A878002618B1AE70084602F0E6FB2D
:1040F0006878012428B16E70384602F0E1FB174859
:10410000047017A14046FCF72DFA20B9384602F09A
:104110008DFC1548047015A14046FCF723FA20B920
:10412000384602F02BFD1348047013A14046FCF7FB
:1041300019FA20B9124804704178491C4170287955
:1041400028B1384602F0AEFC0E4804702E71EC70B7
:104150000120BDE8F0810000140000205C11002067
:104160002B43534341000000CC1200202B49504404
:1041700000000000E21200202B434C4950000000D8
:104180004F1400201214002010B5FFF7C5FC0248A0
:10419000C188491CC18010BD14000020012240F2DA
:1041A0002551014803F0F1BA0044004010B5FCF776
:1041B0000BF81D490A78521C0A70FCF709F81B48D5
:1041C0000821044603F0B9FA012806D10821204647
:1041D00003F08EFA204603F039FB40F225512046C9
:1041E00003F0B2FA50B1204603F030FBC0B2FFF743
:1041F000CBFF40F22551204603F07DFA40F22771B3
:10420000204603F0A1FA50B1002240F22771204667
:1042100003F0BBFA40F22771204603F06CFABDE8C8
:10422000104001F043B800004E0000200044004060
:1042300070B5174D4FF480712846FFF740FA00F033
:104240003BFE00224FF4FA731146104601F0E2FAE9
:10425000A9152846FFF735FA022400F02DFE0023A9
:1042600001221946184601F0D5FA2100A4F10102F5
:10427000D4B2F2D14FF480712846FFF720FABDE89E
:10428000704000224FF4FA731146104601F0C2BA92
:104290000008014030B5044655A08DB000680C9070
:1042A0000D4654A000F0D8FB002301221946184601
:1042B00001F0B0FA52A000F0CFFB00230122194612
:1042C000184601F0A7FA51A000F0C6FB0023012216
:1042D0001946184601F09EFA5048417801290AD043
:1042E0004FA000F0B9FB002301221946184601F047
:1042F00091FA0DB030BD811C02A8FFF79BFE21464C
:1043000007A8FFF797FE29464848FFF765F80CA96C
:10431000464802F0DDFD47A3DFF814C118780022FB
:1043200038B1985C0CF80200501C82B2985C0028EE
:10433000F7D100200CF8020002A93D4802F0C8FDA8
:104340003EA13B4802F0C4FD2046FCF7E0F8C1B2B4
:10435000684600F099FD6946354802F0B9FD39A17B
:10436000334802F0B5FD07A9314802F0B1FD36A18E
:104370002F4802F0ADFD2D48FCF7C9F8C0F3470106
:10438000684600F081FD6946294802F0A1FD2748F2
:10439000FCF7BDF80F2101EB5000C1B2684600F0F8
:1043A0004BFD2BA000F058FB684600F055FB13A016
:1043B00000F052FB00224FF448731146104601F002
:1043C00029FA1B4800F048FB184800F045FB00F0B4
:1043D00073FD00F059FB12A000F03EFB00224FF4E9
:1043E000FA731146104601F015FA0DB030BD000009
:1043F0001A00000041542B435343413F0D0A000073
:1044000041542B434D47463D300D0A0041542B4348
:104410005343533D2247534D220D0A00CC12002036
:1044200041542B434D47463D310D0A00D40B00202B
:10443000700B00203038393100000000313130304D
:1044400000000000393100003030303841370000C2
:1044500041542B434D47533D0000000030B5044606
:1044600040A089B0006807900D463FA000F0F4FA24
:104470000022C8231146104601F0CCF93D483EA168
:104480000A68C0F890218988A0F89411002180F86A
:1044900096112046FCF73BF8C1B2684600F0F4FCE8
:1044A0006946374802F014FD36A1354802F010FD88
:1044B000214602A8FFF7BEFD02A9314802F008FD1F
:1044C00031A12F4802F004FD29463148FEF784FF50
:1044D0002F48FCF71CF8C0F34701684600F0D4FCF5
:1044E0006946274802F0F4FC2949A1F5C87002F09A
:1044F000EFFC07A9224802F0EBFC00F0DDFC2048AD
:10450000FCF705F84FF0FF3101EB5000C1B26846EF
:1045100000F092FC1FA000F09FFA684600F09CFAA1
:104520001FA000F099FA00224FF44873114610467C
:1045300001F070F9124800F08FFA002304221946A6
:10454000184601F067F900F09FFA16A000F084FA0F
:1045500000224FF448731146104601F05BF909B090
:1045600030BD00001A00000041542B434D47463D2A
:10457000300D0A00700B0020303033313030000035
:10458000000D00203931000030303038303100006B
:10459000900E002041542B434D47533D0000000036
:1045A0000D0A000041542B434D47463D310D0A0092
:1045B00070B505460C4614A000F04EFA00224FF4E8
:1045C000FA731146104601F025F913A000F044FAE1
:1045D000284600F041FA13A000F03EFA00224FF402
:1045E000FA731146104601F015F9204600F034FA2E
:1045F0001A2000F021FA6423BDE870400022114621
:10460000104601F007B900000D0A41542B434D47F5
:10461000463D310D0A00000041542B434D47533DA8
:1046200022000000220D0A00002482B02546012647
:10463000FDF7F5FD00F05AFC4021AD48FFF738F8D2
:10464000002808BFFFF7F4FDDFF8A8924FF000083C
:10465000DFF8A4A200F030FC0022642311461046CB
:1046600001F0D8F8681C85B22EB9B5F5967F24BF45
:104670000025FFF71FFD962C08D13EB19FA26421B3
:10468000002000F065FCFFF7B9FA002600F07EFA82
:104690009F4F00F0FF0B3878A0B100214FF4A073BA
:1046A000F0220846CDF800A002F0A4FF994A50215C
:1046B000002002F0D5FF984A6421002002F0D0FFCC
:1046C00087F80080954F3878C8B195A2C3210020A3
:1046D00000F03EFC96A2D721002000F039FC7A1CA5
:1046E000D721232002F0BCFF93A2D721782000F02D
:1046F0002FFC07F11002D7219B2002F0B1FFFDF73C
:1047000044FE8FA24FF48C71002000F021FC5A4629
:104710004FF48C71412002F023FF8CA24FF48C7176
:104720006E2000F015FC2246601C84B24FF48C71A0
:10473000AA2002F015FF87A24FF49671002000F026
:1047400007FC874F3878002865D087F8008085A15E
:1047500007F5AD70FBF706FFC0B184A107F5AD709A
:10476000FBF700FF00B383A107F5AD70FBF7FAFE7E
:1047700000B382A107F5AD70FBF7F4FE00B381A191
:1047800007F5AD70FBF7EEFEF0B121E099F80300FC
:10479000412804D07DA1781CFFF70AFF18E0844966
:1047A000781CFFF705FF13E04FF480515048FEF7E7
:1047B00088FF0DE04FF480514D48FEF780FF07E081
:1047C000781CFFF789F903E07A49781CFFF746FE69
:1047D0007A1CB421002002F043FF07F11502C82122
:1047E000002002F03DFF07F12E02DC21002002F044
:1047F00037FF07F5AD72F021002002F031FF07F519
:10480000B272F021322002F02BFFF0217820D7F88D
:104810006C2102F0A5FE684F387880B17A88C821F3
:10482000002002F09DFE3A1DDC21002002F018FF5E
:1048300062A1381DFBF796FEF0B187F80080624F49
:10484000387890B187F8008060A2B421002002F08F
:1048500007FF7A78F021782002F082FE787802282B
:1048600003D9FFF729F987F801805A4F012138460B
:10487000FEF71EFFD8B908E099F8030041280CBFE5
:104880004B4855A0FFF788FAD7E74FF480511848F6
:10489000FEF717FF00214FF4A073F0220846CDF871
:1048A00000A002F0A7FE54A155A0FFF79DFA082131
:1048B0003846FEF7FDFE38B94FF480510C48FEF73C
:1048C000FEFE5348FFF768FA04213846FEF7F0FE73
:1048D000002808BFFFF7F0F802213846FEF7E8FE8F
:1048E00000287FF4B7AE4BA14FA0FFF7D3FCB1E691
:1048F00000140140581C0020F0FF0008B3F5CABCAA
:10490000BBAF53494D393030C4A3BFE92E2E2E0022
:1049100017000020BC0F0020CB0F00201214002035
:10492000BBF9D5BEB6A8CEBBBDE1B9FBA3BA0000AA
:10493000CEB3B6C83A000000BEADB6C83A0000001B
:104940004E5443CEC2B6C83A00000000BCC6CAFDF1
:10495000C6F73A00475053CAB1BCE43A0000000021
:104960005C110020474F4F474C4500004C45444FD9
:104970004E0000004C45444F4646000043414C4C1D
:104980004D450000535441545553000047505320A7
:10499000697320736561726368696E672C706C65FA
:1049A00061736520776169742E2E2E21000000004E
:1049B000281B00208C1B0020E2120020476F6F672D
:1049C0006C65204D61703F004F14002052494E47E6
:1049D0000000000000180140475053206973207305
:1049E0006561726368696E672C706C6561736520C0
:1049F0007761697421000000353830300000000014
:104A000065746D63752E786963702E6E6574000031
:104A1000D4890008C4E3BAC3A3A148656C6C6F775E
:104A200020576F726C642100383631353939303493
:104A3000373238393600000010B5064C01462046A2
:104A400002F008FF4021204602F077FE0028F9D04E
:104A500010BD00000044004070B5044600780028F6
:104A600014BF084D70BD14F8011B284602F0F2FE79
:104A70004021284602F061FE0028F9D02078002865
:104A8000F1D170BD0044004010B5322405E0002291
:104A900064231146104600F0BDFE07490748FBF7A6
:104AA00061FD20B12000A4F10101CCB2EFD1002CB6
:104AB0000CBF0020012010BD388B0008BC0F002067
:104AC0002DE9F041134F0C46054616464FF40051B0
:104AD0003846FEF7F4FD032002F0E0F9C4F3074086
:104AE00002F0DCF9C4F3072002F0D8F9E0B202F0DA
:104AF000D5F90024002E06D9FF2002F0CFF9285561
:104B0000641CA642F8D83846BDE8F0414FF4005185
:104B1000FEF7D7BD0010014000281CBF0029002B64
:104B2000DCBF0020704770B44FF0000C644666464E
:104B300094420CD010F80C507DB12C2D08BF641C91
:104B40000CF1010C10F80C50002DF1D107E010F819
:104B50000C202C2A03D02A2A01D000220BE00E7050
:104B600070BC002070478C54521C0CF1010C934215
:104B700001DC5A1E06E010F80C402C2C1CBF2A2C1D
:104B8000002CF0D18E5470BC0120704770B5002508
:104B900001212448FDF735FB00221423114610465D
:104BA00000F038FE2048008880B203F03DFD044646
:104BB00001461E4803F018FE06461D49204603F034
:104BC00047FD314603F04EFC1A4903F041FD03F066
:104BD0000BFD80B244F6EA3181423CBF002070BD3B
:104BE00062283CBF642070BD0123DFF84CC08C24D8
:104BF0003CF8142082420DD80CEB440131F8021C21
:104C0000884207D8091A821A9142BCBF611ECCB2F1
:104C100025460023611ECCB2002BE9D1A5F12B0063
:104C200040B270BD002401400800002000F07F4524
:104C3000000020410000C8421C8A000870B50F4DDA
:104C4000044610212846FEF73AFD4FF47A720021FF
:104C5000491C9142FCD344F0800002F01FF900206F
:104C600002F01CF9044610212846FEF72AFD0A210D
:104C70000020401C8842FCD3204670BD0018014033
:104C800070B5144E044610213046FEF718FD4FF45F
:104C90007A710020401C8842FCD344F0C00002F02E
:104CA000FDF8002002F0FAF80546002002F0F6F8C0
:104CB000044610213046FEF704FD0A220021491C5B
:104CC0009142FCD34FF6FF7000EA0420284480B2E2
:104CD00070BD00000018014010B52BA2F02100208B
:104CE00000F036F93220FFF7CBFF04462BA24FF439
:104CF0008271002000F02CF922464FF482712320AB
:104D000002F0CEFB3420FFF7BBFF044625A24FF490
:104D10008271552000F01CF922464FF482717820F0
:104D200002F0BEFB3620FFF7ABFF04461FA24FF494
:104D30008271A02000F00CF922464FF48271C3204A
:104D400002F0AEFB2B20FFF779FF3020FFF776FF54
:104D5000184C10F0700F07D017A2F0218C2000F033
:104D6000F7F80520207010BD207828B1401E10F003
:104D7000FF00207018BF10BD13A2F021BDE8104045
:104D80008C2002F06DBC0000D6D8C1A6BCD3CBD914
:104D9000B6C8B4ABB8D0C6F73A00000058D6E13A6E
:104DA0000000000059D6E13A000000005AD6E13A6E
:104DB000000000000C00002028BCECB2E2B5BDD51C
:104DC000F0B6AF2900000000202020202020202065
:104DD000202020200000000070B5154C0D4606462E
:104DE00010212046FEF76BFC64220020401C9042FC
:104DF000FCD306F07F0002F051F864220020401C32
:104E00009042FCD3284602F049F864210020401C5F
:104E10008842FCD310212046FEF753FC054802F0DF
:104E20000FF864210020401C8842FCD370BD0000B4
:104E3000001801400030014001EBC10202EB4112B9
:104E400010B4120B30320270CD224A43DFF834C066
:104E5000D20AACFB0243DB085B4203EB830302EBA9
:104E6000430230324270ACFB0132D208524202EBB4
:104E7000820201EB4201303181700021C17010BC0F
:104E800070470000CDCCCCCC0A09092A8CBF373240
:104E90003032027001F00F0109298CBF37313031F7
:104EA000417000218170704702494CF6CC40086087
:104EB000704700000030004002494AF6AA2008600E
:104EC0007047000000300040014948607047000012
:104ED0000030004001498860704700000030004009
:104EE00001490860704700000030004010B582B0F2
:104EF00001A90220FEF716F8BDF80400A0F5045140
:104F000021390FD00D210020FEF75CF849F238015D
:104F10000120FEF757F842F221110220FEF752F865
:104F200002B010BD69460020FDF7FCFF074CBDF83C
:104F300000006946000460600120FDF7F3FFBDF842
:104F4000000061680844606002B010BD0C000020E1
:104F500070B5164600F11002EF2A9CBF01F1100255
:104F6000B2F5A07F28BF70BD044630780D460028FA
:104F700008BF70BDC2B2A12A13D3324629462046CB
:104F800000F026F804F1100084B2EF2C07D905F1E7
:104F90001000002485B2B5F5A07F28BF0025B61CFF
:104FA00011E0E0B2294602F08DF904F1080084B264
:104FB000EF2C07D905F11000002485B2B5F5A07FCC
:104FC00028BF0025761C30780028D3D170BD0000A2
:104FD0002DE9F04F054689B00C461046FEF790F9D2
:104FE000014620226846FFF76BFD4FF0C04A4FF0A4
:104FF000500BAAF800B0DFF8F880A8F800504FF086
:10500000510EAAF800E005F10F001FFA80F9A8F888
:1050100000905220AAF80000A8F800405320AAF8F7
:105020000000E01DA8F800002020AAF80000A8F861
:1050300000502120AAF80000A8F800402220AAF879
:1050400000002C4801210026438802886F4600207A
:1050500017F800C01CEA010F14BFA8F80030A8F828
:105060000020401CC0B21028F2D34806010E701C6C
:10507000C6B2082EEBD3AAF800B0A8F80050AAF8E0
:1050800000E0A8F800905220AAF8000004F10800FF
:10509000A8F800005321AAF80010C11DA8F80010BC
:1050A0002021AAF80010A8F800502121AAF8001029
:1050B000A8F800002220AAF8000001214FF0000CFF
:1050C00010203C5C0C4214BFA8F80030A8F8002067
:1050D000401CC0B22028F4D34806010E0CF1010098
:1050E00000F0FF0CBCF1080FEAD309B0BDE8F08F67
:1050F00000000260400000207047000070B50546C7
:105100000D480E4614468078002818BF122001D0A2
:10511000107070BD2B78012B18BF022B04D0032B0D
:105120001CBF042B0120F3D1FBF760F82E61FBF7C5
:1051300061F80020207070BD4C00002070B586B072
:1051400000F0B2F8474B00245C639C70DC701C726A
:10515000DC71DC601C629C615C615C709C7103F1C1
:105160001C012046401CC0B201F8014B0428F9D3B1
:105170001C715C71DC623C494FF484605C62401ECF
:10518000000401F8014B000CF9D138498020401E81
:10519000000401F8014B000CF9D13348002184468A
:1051A0000CF1580232A505654261491C583058324D
:1051B000C9B20B29F6D32EA1446101652D49C3F86C
:1051C00028C04FF4C8701C63401E000401F8014B56
:1051D000000CF9D12748002284460CF11401047018
:1051E00023A505614160521C1430143192B2132A78
:1051F000F5D304701EA144600161C3F810C000F033
:105200006DFC1D484FF6FF71CDE900108025CDE9FA
:105210000254032600F5FE721F230496002117484E
:1052200000F06CF905AA16A11F2000F0C9F9184872
:105230004FF6FE71CDE90010CDE9025400F5FE7283
:105240001E2304960021134800F058F905AA12A164
:105250001E2000F0B5F900F028F806B0BDE8704057
:10526000FFF74ABF4C000020A8220020282200207F
:105270003F000000981C002028200020D15C00087E
:1052800075432F4F532D49492049646C6500000038
:10529000281E0020ED5C000875432F4F532D49490F
:1052A00020537461740000007047704770B5174C4C
:1052B000E079012818BF70BDFAF798FFA17805467C
:1052C00021B1481E10F0FF01A1701AD1E078C0B9D9
:1052D0000F48A1790F4A415C525C805C00EBC10031
:1052E000C2B20D48627150F82210E1622079824208
:1052F00007D0C86B401CC863E068401CE060FAF748
:1053000091FF2846BDE87040FAF774BF4C000020BA
:10531000B4740308680000202822002070B50546F8
:105320000F48007800281CBF002070BDFAF75EFF10
:1053300001460C480468002C1CBF626802600846E5
:10534000FAF758FF4CB103202070258100206060DF
:1053500005A02061204600F0B5FB204670BD00008E
:105360004E0000205C0000203F0000002DE9F047C7
:10537000054600788846144603281EBF0120107099
:10538000BDE8F08727480078002818BF022002D027
:105390001070BDE8F08724480078002818BF0D2061
:1053A000F6D1FAF723FF81462889002638B1401E3E
:1053B00028814846FAF71EFF2670BDE8F0871B4F8C
:1053C0003A6892F8340040F0010082F8340082F824
:1053D00035602846C2F8308000F046FB4846FAF7B0
:1053E00009FF00F0ABFBFAF701FF8046386890F840
:1053F0003510002908BF267008D0022908BF0E20EA
:1054000003D0294600F002FB0A202070386880F89B
:10541000346080F83560C66106624046BDE8F047FA
:10542000FAF7E8BE4E0000204F0000207000002078
:1054300070B50446007803281CBF012070BDFAF740
:10544000D5FE0546A07A58B1002301221946204610
:1054500000F090FA2846FAF7CDFE00F06FFB09E065
:1054600020894FF6FF71884206D2401C20812846D1
:10547000FAF7C0FE002070BD2846FAF7BBFE3220C6
:1054800070BD00000B49C879002818BF70470A4A50
:1054900088790A4B105C1B5CD25C02EBC000C0B286
:1054A000074A4871087152F82000C8624862FAF74A
:1054B000A4BE00004C000020B47403086800002063
:1054C0002822002010B5022000F074F9FAF78EFEB1
:1054D000084C00212162FAF78DFE642000F06AF981
:1054E000FAF784FE216A616101216170BDE8104014
:1054F000FAF780BE4C000020FCF749BF2DE9FF4FB2
:1055000083B01C46DDE91175DDE91386DDF840B096
:10551000FAF76CFE2549097829B1FAF76BFE07B056
:105520003C20BDE8F08FDFF8889059F8241029B1AD
:10553000FAF760FE07B02820BDE8F08F012149F896
:105540002410FAF757FE3946284616F0010F4FF09F
:10555000000A08D016F0020F18BF002803D0401E22
:1055600041F804ABFBD1DDE903013346059A00F0B5
:1055700099F8CDE9005801465B463A462046029626
:1055800000F00EFB050009D0FAF730FE49F824A020
:10559000FAF730FE07B02846BDE8F08F05480078DE
:1055A000012808BF00F0CAFAF4E700004E0000200E
:1055B0002822002053000020FCF7EABEFCF7E9BED9
:1055C00070B5054612480E461446007800281EBFE6
:1055D0001220107070BDFAF709FE0246FF2D03D1AC
:1055E0000C48006890F836500B4850F825004325C9
:1055F000002818BF012806D006651046FAF7FAFD04
:105600000020207070BD1046FAF7F4FD257070BDC3
:105610004E0000207000002028220020FCF7FABE77
:105620002DE9F0410446002008600E464860FAF774
:10563000DDFD0146FF2C03D11848006890F8364084
:10564000174850F82400002818BF01280DD0027C0C
:1056500012F0010F0FD0D0E9024700250846FAF7F3
:10566000C9FD54F8040B60B110E00846FAF7C2FD1A
:105670004320BDE8F0810846FAF7BCFD4520BDE8AF
:10568000F08154F8040B6D1C0028FAD0A80030609B
:10569000781B800070600020BDE8F0817000002061
:1056A000282200204FF08073136042F8040C6FF042
:1056B000010342F8083C4FF0123342F80C3C4FF023
:1056C000033342F8103C4FF0023342F8143C5B10B5
:1056D00042F8183C42F81C1C4FF0113142F8201CD3
:1056E000190142F8241C4FF0093142F8281CD90056
:1056F00042F82C1C4FF0073142F8301C4FF00631B5
:1057000042F8341C4FF0053142F8381C9900A2F1E0
:105710003C0042F83C1C704770B50446FAF766FD41
:1057200084461F48FF2C006804BF90F836400125CE
:1057300005D090F83600A0420CBF0125002519487D
:1057400050F8240058B101280ED090F83810164BAC
:1057500090F839405A5CA2435A540AD010E060468F
:10576000FAF748FD482070BD6046FAF743FD432034
:1057700070BD0E4990F83A200B7823EA02020A70B5
:1057800090F8341041F0080180F834106046FAF7C0
:1057900031FD012D08BF00F0D1F9002070BD0000DF
:1057A0007000002028220020680000205200002005
:1057B000FCF731BE70B5044612480078002818BFC7
:1057C00070BD002C08BF70BDFAF710FD84460E486E
:1057D00001680E4891F8382091F83950835CAB434A
:1057E000835406D10A4891F83A20037823EA02024A
:1057F000027060460C63FAF7FDFCBDE8704000F0F3
:105800009DB900004E0000207000002068000020BC
:1058100052000020DFF844C09CF800C0BCF1000F2B
:105820001CBF5520704710B54FF47A7C03FB0CF376
:10583000B3FBFCF34FF4616C00FB0CF0C1EB011106
:1058400000EB8100104400EB4001C1EBC01003EB02
:10585000C000FFF7AFFF002010BD00004E00002089
:105860002DE9F04100F056F8FAF7C0FC274D696BBE
:10587000491C6963FAF7BEFCE879012818BFBDE846
:10588000F081687A0126002738B1012808BFBDE8F9
:10589000F081022814BF6F726E722C6B94F8360080
:1058A0001F2814BFDFF86880BDE8F081FAF79EFC7E
:1058B000216B11B3491E21631FD194F8341011F0EC
:1058C000370F1DBF21F0370184F8341084F835609C
:1058D00084F8357094F8341011F0080F0DD194F855
:1058E0003A10AA791143A97194F8381094F8393014
:1058F00018F801201A4308F801206469FAF77AFCC5
:1059000094F836001F28D1D1BDE8F0814C0000206A
:1059100068000020FCF780BD00B585B0684601F046
:1059200099F9009805B000BD10B5FAF75FFC06497B
:105930000A78521C0A70FAF75DFCFFF791FFBDE888
:105940001040FFF7B3BC00004E00002010B5FFF779
:10595000E3FF4FF47A71B0FBF1F0411E4FF0E0200D
:105960004161016941F005010161016941F00201F4
:10597000016110BD70B50546807ADFF884C01CF85F
:1059800000002C18E47A1CF804C00CEBC00C0CF0DE
:10599000FF06DFF870C05CF826404FF0000CC4F83A
:1059A00030C0616294F83410914384F8341084F864
:1059B000353011F0080F0BD1134994F83A208B7948
:1059C0001A438A711C3194F839300A5C1A430A541C
:1059D00094F8380094F839202918C87A9043C8728E
:1059E00005D1A87A94F83A1020EA0101A972216A37
:1059F00019B1204600F01CF8E561304670BD00008A
:105A0000B4740308282200204C00002090F83820AD
:105A100090F839C08B18DA7A32EA0C02DA7218BFC1
:105A200070478A7A90F83A0022EA0000887270473C
:105A300030B490F8384090F83AC090F8395008687F
:105A4000002804BF30BC70470319DA7AAA43DA721F
:105A500003D1827A22EA0C02827251F8040F0028E4
:105A6000F2D130BC70470000DFF854C010B4DCF84D
:105A7000241000F10B03C86191F8382091F8391017
:105A8000D45C2143D154DCF82410827A91F83A3066
:105A90001A43827291F838000CF11C0391F83940D6
:105AA0001A5CA2431A541CBF10BC704791F83A000C
:105AB0009CF8061021EA00008CF8060010BC704724
:105AC0004C0000200022827200F10B011046401CA5
:105AD000C0B201F8012B0428F9D3704710B550214A
